:04000000FEEF3FF0E0
:104E40008C8C958C1200939093928A808A82F19E2A
:104E50001200A2EC27F0030EE82EFED70000FDECB6
:104E600027F01200016EACA238EF27F03AEF27F0DE
:104E700033EF27F001C0ADFF1200948C948E330EF7
:104E8000AF6EB06AAC8AAC98AC84AB8EAB88AE50D7
:104E90001200070E056E040E13EC28F0080E056EC6
:104EA000060E13EC28F00850075C1F0B12008C90C4
:104EB0008C928C948C968A94A1EC29F0350E026E1B
:104EC0007E0E036E46EC28F0120000EE60F04B0EF2
:104ED000EE6AE806FDE15F6A5E6A5D6A000EF86EE2
:104EE000000122EF3AF0056EFDEC27F0AE0E2BEC40
:104EF0002BF005502BEC2BF004502BEC2BF0A2ECFC
:104F000027F01200046EFDEC27F0780E2BEC2BF04E
:104F1000000E2BEC2BF004502BEC2BF0A2EC27F026
:104F200012000450031009E1510E015CC30E025837
:104F3000D8B09DEF27F0A0EF27F0010EA1EF27F0EA
:104F4000000E120093928A92030EE82EFED7000004
:104F50008A80030EE82EFED700008A82030EE82E18
:104F6000FED700001200066E020E06260550B00F96
:104F700082EC27F006500F0B82EC27F006380F0B5F
:104F8000100982EC27F01200026E036A0250010B36
:104F90007DEC28F0D8900232032A070E0364D3EF89
:104FA00027F0D5EF27F0C6EF27F0120075EC29F0B7
:104FB0000009D8A4DEEF27F0E0EF27F0E2EF27F0BA
:104FC000E8EF27F0CC0EC4EC27F0440EC4EC27F039
:104FD00012008C9C959C00D000D020EC27F0060E8F
:104FE000E82EFED700D0000E83BC010E016E220E0B
:104FF000E82EFED700D00150120093928A82030E51
:10500000E82EFED700008A80030EE82EFED70000AF
:105010008A92030EE82EFED700008A90030EE82E37
:10502000FED700001200066EFDEC27F0AE0E2BEC52
:105030002BF006502BEC2BF029EC27F0AF0E2BECCD
:105040002BF00550D96EDA6A000E67EC2BF0DF6E9C
:10505000A2EC27F0010E1200026A036AD890023215
:10506000E9EC27F00009D8B438EF28F03AEF28F03F
:105070003BEF28F0028E032A070E036442EF28F06C
:1050800044EF28F02EEF28F00250120052EF28F0E3
:1050900002C0F6FF03C0F7FF0800F55032EC27F01E
:1050A000024A032A02C0F6FF03C0F7FF0800F550CA
:1050B0000009D8A45EEF28F060EF28F048EF28F050
:1050C0001200070E056EFF0E13EC28F00009D8A49D
:1050D0006CEF28F06EEF28F071EF28F0000E7CEFF7
:1050E00028F0150E0718D8B478EF28F07BEF28F0D9
:1050F000010E7CEF28F0000E1200016E0150D8B4B2
:1051000084EF28F086EF28F092EF28F08C9C959C95
:1051100000D000D020EC27F0290EE82EFED70000AA
:105120009CEF28F08C9C959C2A0EE82EFED700D090
:1051300020EC27F000D000D01200720ED36ED3A462
:10514000A4EF28F0A6EF28F09FEF28F0020E026EE1
:10515000040E016EBA0EE82EFED7012EFCD7022EE9
:10516000FAD700D0400E956E8C6AF80E936E8A6A5C
:10517000F19E070EB46E0F0EC16E1200056E055043
:10518000B00F82EC27F0020E82EC27F0100E82ECBA
:1051900027F0FDEC27F0780E2BEC2BF0400E2BECDB
:1051A0002BF0066A000E2BEC2BF0062A7F0E06640D
:1051B000DCEF28F0DEEF28F0D2EF28F0A2EC27F0A9
:1051C0001200000E151A000E161A000E171A800E85
:1051D000181A11C001F012C002F013C003F014C07D
:1051E00004F015C005F016C006F017C007F018C08F
:1051F00008F0C7EC37F001C011F002C012F003C094
:1052000013F004C014F01200A1EC29F0000E056E9A
:10521000280EB3EC27F0DC0E0C6E7F0E0D6E26EC24
:105220002AF0030E056E000EB3EC27F00EC00CF052
:105230000FC00DF026EC2AF0060E056E160EB3EC2C
:1052400027F09D0E0C6E7F0E0D6E26EC2AF01200DC
:10525000A1EC29F0020E056E1C0EB3EC27F0C60E71
:105260000C6E7F0E0D6E26EC2AF0040E056E160EE7
:10527000B3EC27F0940E0C6E7F0E0D6E26EC2AF028
:10528000060E056E040EB3EC27F02E0E0C6E7F0E8C
:105290000D6E26EC2AF01200036E046A6BEF29F003
:1052A0008C84030E026E080E016E770EE82EFED778
:1052B000012EFCD7022EFAD700008C94030E026E4A
:1052C000080E016E770EE82EFED7012EFCD7022EB7
:1052D000FAD70000042A0350045CD8A072EF29F02A
:1052E00074EF29F050EF29F0120020EC27F0060EA1
:1052F000E82EFED700D083BC80EF29F082EF29F0A2
:1053000085EF29F0000EA0EF29F08C9C959CC80E2B
:1053100000D0E82EFDD720EC27F02E0EE82EFED789
:1053200000D083AC96EF29F099EF29F0010E9AEFA7
:1053300029F0000E016EAC0E00D0E82EFDD7015012
:105340001200066A0650B00F82EC27F0000E82ECC5
:1053500027F0100E82EC27F0FDEC27F0780E2BECF6
:105360002BF0400E2BEC2BF0056A000E2BEC2BF0F3
:10537000052A7F0E0564BFEF29F0C1EF29F0B5EFD4
:1053800029F0A2EC27F0062A070E0664CAEF29F0DE
:10539000CCEF29F0A2EF29F01200106EA1EC29F059
:1053A000020E056E0A0EB3EC27F01050D8B4DBEFF6
:1053B00029F0DDEF29F0E5EF29F08F0E0C6E7E0E5F
:1053C0000D6E26EC2AF0EBEF29F0F40E0C6E7E0E3B
:1053D0000D6E26EC2AF00B0E0F6E260E0E6E5E0E74
:1053E000E82EFED70E2EFCD70F2EFAD7A1EC29F00F
:1053F0001200A1EC29F0020E056E140EB3EC27F09A
:105400008B0E0C6E7F0E0D6E26EC2AF0040E056ED0
:105410000F0EB3EC27F0610E0C6E7F0E0D6E26ECB6
:105420002AF0190E026E7E0E036E46EC28F08C8078
:105430000B0E0F6E260E0E6E5E0EE82EFED70E2E93
:10544000FCD70F2EFAD7A1EC29F012003CEF2AF07E
:105450000CC0F6FF0DC0F7FFF86A070EF76403D023
:105460000800F55005D0F6CFE1FFF7CFE2FFE75097
:1054700027EC30F00C4A0D2A0CC0F6FF0DC0F7FFE8
:10548000F86A070EF76403D00800F55005D0F6CF90
:10549000E1FFF7CFE2FFE7500009D8A452EF2AF06E
:1054A00054EF2AF028EF2AF01200A1EC29F0000EA8
:1054B000056E040EB3EC27F0030E0C6E7F0E0D6E1E
:1054C00026EC2AF0020E056E100EB3EC27F06C0EDF
:1054D0000C6E7F0E0D6E26EC2AF0040E056E100E7B
:1054E000B3EC27F0770E0C6E7F0E0D6E26EC2AF0D3
:1054F000060E056E0A0EB3EC27F0490E0C6E7F0EF9
:105500000D6E26EC2AF0120003500410D8B48BEF75
:105510002AF08DEF2AF0B1EF2AF0010E056E95EF1B
:105520002AF0D89003360436052A04AE9AEF2AF002
:105530009CEF2AF091EF2AF00350015C04500258CE
:10554000D8A0A5EF2AF0A7EF2AF0ABEF2AF003507E
:10555000015E0450025AD89004320332052E9CEFAB
:105560002AF001C001F002C002F01200066A000E2B
:10557000056E03500410D8B4C0EF2AF0C2EF2AF031
:10558000EAEF2AF0010E076ECAEF2AF0D890033630
:105590000436072A04AECFEF2AF0D1EF2AF0C6EF87
:1055A0002AF0D890053606360350015C04500258A4
:1055B000D8A0DDEF2AF0DFEF2AF0E4EF2AF0035065
:1055C000015E0450025A0580D89004320332072E3F
:1055D000D1EF2AF005C001F006C002F01200000E63
:1055E000096E000E0A6E000E0B6E000E0C6E0D6A38
:1055F0000D50040DF350600FD96EDA6ADE500926A3
:10560000DE500A22DE500B22DD500C220D2A0F0E36
:105610000D640DEF2BF00FEF2BF0F8EF2AF009C01F
:1056200005F00AC006F00BC007F00CC008F0050E2C
:105630001FEF2BF0D8900832073206320532E82EE1
:105640001AEF2BF005C001F006C002F007C003F00E
:1056500008C004F01200026E036A02BE32EF2BF0A3
:1056600036EF2BF0016A012A37EF2BF0016A014671
:105670008A500118FD0B01188A6ED8900236030E6D
:10568000E82EFED700008A80030EE82EFED7000029
:105690008A90030EE82EFED70000032A070E03644B
:1056A00054EF2BF056EF2BF02DEF2BF09382030EDF
:1056B000E82EFED700008A80030EE82EFED70000F9
:1056C0008A909392030EE82EFED700001200026E1D
:1056D000036A9382046AD8900336030EE82EFED73D
:1056E00000008A80030EE82EFED7000081A27BEF27
:1056F0002BF07DEF2BF07EEF2BF003808A90030ED2
:10570000E82EFED70000042A070E04648AEF2BF06F
:105710008CEF2BF06BEF2BF093920250D8B493EFF9
:105720002BF097EF2BF0016A012A98EF2BF0016A1A
:1057300001468A500118FD0B01188A6E030EE82EEF
:10574000FED700008A80030EE82EFED700008A9064
:105750008A82030EE82EFED700000350120061EC8F
:1057600028F00009D8A4B7EF2BF0B9EF2BF0BCEF6D
:105770002BF0000EFBEF2BF0400E046E090E73ECC5
:1057800027F0340E086EF20EE82EFED7082EFCD756
:10579000000E046E040E73EC27F0000E046E050E6E
:1057A00073EC27F0000E046E060E73EC27F0500E1B
:1057B000046E080E73EC27F0270E046E0A0E73ECCD
:1057C00027F01F0E046E0C0E73EC27F01F0E046EF4
:1057D0000D0E73EC27F0030E046E090E73EC27F028
:1057E000090E056E000E13EC28F0090E056E010E71
:1057F00013EC28F0010E1200000E096E000E0A6E66
:10580000000E0B6E000E0C6E0550061007100810EF
:10581000D8B40DEF2CF00FEF2CF045EF2CF0010E6B
:105820000D6E19EF2CF0D89005360636073608367F
:105830000D2A08AE1EEF2CF020EF2CF013EF2CF009
:10584000D89009360A360B360C360550015C0650E6
:1058500002580750035808500458D8A032EF2CF0D3
:1058600034EF2CF03DEF2CF00550015E0650025A4B
:105870000750035A0850045A0980D890083207325A
:10588000063205320D2E20EF2CF009C001F00AC0BF
:1058900002F00BC003F00CC004F01200000E011463
:1058A000096E000E02140A6E800E03140B6E7F0E3A
:1058B00004140C6E09500A100B100C10D8A463EFDE
:1058C0002CF065EF2CF06DEF2CF0000E016E000E49
:1058D000026E000E036E000E046E000E0514096EBB
:1058E000000E06140A6E800E07140B6E7F0E08144D
:1058F0000C6E09500A100B100C10D8A482EF2CF07B
:1059000084EF2CF08CEF2CF0000E056E000E066E6E
:10591000000E076E000E086E055001180FE10650CC
:1059200002180CE10750031809E108500418D8B414
:105930009CEF2CF09EEF2CF0A1EF2CF0D890A2EF72
:105940002CF0D8801200126A116A08500910D8A4ED
:10595000ACEF2CF0AEEF2CF0D9EF2CF00A50D96E52
:10596000DA6A300EDF6E0A50D96EDA6A010ED92675
:10597000DF6AFDEF2CF012500B0FD96EDA6A08C007
:1059800001F009C002F0046A0A0E036E84EC2AF0EA
:105990000150300FDF6E122A08C001F009C002F07A
:1059A000046A0A0E036EB6EC2AF001C008F002C0C9
:1059B00009F008500910D8A4E0EF2CF0E2EF2CF029
:1059C000BBEF2CF0F0EF2CF0120612500B0FD96E3B
:1059D000DA6A0A501124E16EE26ADFCFE7FF112A8A
:1059E0001250D8A4F6EF2CF0F8EF2CF0E4EF2CF0E6
:1059F0000A501124D96EDA6ADF6A1200020E026EB2
:105A0000040E016EBA0EE82EFED7012EFCD7022E30
:105A1000FAD700D0020E026E040E016EBA0EE82E06
:105A2000FED7012EFCD7022EFAD700D0020E026E4E
:105A3000040E016EBA0EE82EFED7012EFCD7022E00
:105A4000FAD700D0020E026E040E016EBA0EE82ED6
:105A5000FED7012EFCD7022EFAD700D0020E026E1E
:105A6000040E016EBA0EE82EFED7012EFCD7022ED0
:105A7000FAD700D0020E026E040E016EBA0EE82EA6
:105A8000FED7012EFCD7022EFAD700D0020E026EEE
:105A9000040E016EBA0EE82EFED7012EFCD7022EA0
:105AA000FAD700D0020E026E040E016EBA0EE82E76
:105AB000FED7012EFCD7022EFAD700D01200030E1B
:105AC000066E080E056E770EE82EFED7052EFCD763
:105AD000062EFAD70000AE0E82EC27F0D50E82EC2F
:105AE00027F0F00E82EC27F0A80E82EC27F03F0E94
:105AF00082EC27F0D30E82EC27F0000E82EC27F028
:105B0000400E82EC27F08D0E82EC27F0140E82EC12
:105B100027F0200E82EC27F0020E82EC27F0A10E77
:105B200082EC27F0C80E82EC27F0DA0E82EC27F028
:105B3000120E82EC27F0810E82EC27F0FF0E82EC31
:105B400027F0D90E82EC27F0F10E82EC27F0DB0E65
:105B500082EC27F0400E82EC27F0A40E82EC27F0B6
:105B6000A60E82EC27F0AF0E82EC27F0020E066E36
:105B7000040E056EBA0EE82EFED7052EFCD7062EB3
:105B8000FAD700D01200126A136A08500910D8A47C
:105B9000CCEF2DF0CEEF2DF0F1EF2DF0300E32ECFA
:105BA00027F02CEF2EF012500A0FD96EDA6A08C0D7
:105BB00001F009C002F0046A0A0E036E84EC2AF0B8
:105BC0000150300FDF6E122A08C001F009C002F048
:105BD000046A0A0E036EB6EC2AF001C008F002C097
:105BE00009F008500910D8A4F8EF2DF0FAEF2DF0C5
:105BF000D3EF2DF008EF2EF0120612500A0FD96ED7
:105C0000DA6A13500E0FE16EE26ADFCFE7FF132A64
:105C10001250D8A40EEF2EF010EF2EF0FCEF2DF066
:105C200013500E0FD96EDA6ADF6A136A20EF2EF076
:105C300013500E0FD96EDA6ADF5032EC27F0132AB8
:105C400013500E0FD96EDA6ADF50D8A42AEF2EF067
:105C50002CEF2EF018EF2EF01200186EF70E026ED9
:105C60007F0E036E46EC28F018C008F0096AC3ECFA
:105C70002DF02E0E32EC27F014C008F0096AC3ECA8
:105C80002DF0E70E026E7F0E036E46EC28F0640ED8
:105C900015604DEF2EF04FEF2EF052EF2EF0300E3C
:105CA00032EC27F00A0E156058EF2EF05AEF2EF066
:105CB0005DEF2EF0300E32EC27F015C008F0096AC7
:105CC000C3EC2DF0EB0E026E7F0E036E46EC28F057
:105CD0001650D8A46EEF2EF070EF2EF078EF2EF065
:105CE000F30E026E7F0E036E46EC28F07EEF2EF070
:105CF000EF0E026E7F0E036E46EC28F0E20E026E8F
:105D00007F0E036E46EC28F01750D8A48AEF2EF0D1
:105D10008CEF2EF091EF2EF01A6A300E196E94EF80
:105D20002EF01A6A310E196E195032EC27F04C0E13
:105D3000026E7E0E036E46EC28F01200000E011477
:105D4000096E000E02140A6E800E03140B6E7F0E95
:105D500004140C6E09500A100B100C10D8A4B3EFE9
:105D60002EF0B5EF2EF0BDEF2EF0000E016E000EFE
:105D7000026E000E036E000E046E000E0514096E16
:105D8000000E06140A6E800E07140B6E7F0E0814A8
:105D90000C6E09500A100B100C10D8A4D2EF2EF084
:105DA000D4EF2EF0DCEF2EF0000E056E000E066E26
:105DB000000E076E000E086E04AEE1EF2EF0E3EF6A
:105DC0002EF0ECEF2EF0016C021ED8B0022A031E5A
:105DD000D8B0032A800E045608AEF1EF2EF0F3EF90
:105DE0002EF0FCEF2EF0056C061ED8B0062A071E1A
:105DF000D8B0072A800E0856000E011A000E021AAB
:105E0000000E031A800E041A000E051A000E061A60
:105E1000000E071A800E081A0550015C0650025841
:105E20000750035808500458D8B019EF2FF01BEF53
:105E30002FF01EEF2FF0D8901FEF2FF0D880120018
:105E4000343435343B6E3B50D8A429EF2FF02BEF80
:105E50002FF035EF2FF0000E326E000E336E000E75
:105E6000346E000E356EA2EF2FF032C036F033C024
:105E700037F034C038F035C039F0200E45EF2FF040
:105E8000D8903932383237323632E82E40EF2FF0A0
:105E900036503A6E348EFF0E3216FF0E3316FF0E5A
:105EA0003416000E3516960E3B5E3BBE5CEF2FF0AF
:105EB0005AEF2FF072EF2FF03B50800A970FD8B0B7
:105EC00064EF2FF066EF2FF068EF2FF02BEF2FF03D
:105ED000D89035323432333232323B3E68EF2FF0D5
:105EE0008AEF2FF01F0E3B6478EF2FF07AEF2FF040
:105EF00082EF2FF02BEF2FF0D89032363336343636
:105F000035363B063B50D8A488EF2FF08AEF2FF0B0
:105F10007CEF2FF03A50D8B490EF2FF092EF2FF0A3
:105F20009AEF2FF0351E341E331E326C000E3322D2
:105F30003422352232C032F033C033F034C034F072
:105F400035C035F012001D6E000EBEEC28F0000EBC
:105F5000056E000EB3EC27F01650D8A4B2EF2FF068
:105F6000B4EF2FF0BCEF2FF0D50E0C6E7E0E0D6E41
:105F700026EC2AF0C2EF2FF0C50E0C6E7E0E0D6ED1
:105F800026EC2AF0020EBEEC28F0020E056E000E82
:105F9000B3EC27F0D50E0C6E7F0E0D6E26EC2AF0BA
:105FA0001DC008F0096A170E0A6EA3EC2CF0170E3C
:105FB0000C6E0D6A26EC2AF0540E0C6E7F0E0D6EE0
:105FC00026EC2AF013C008F0096A170E0A6EA3EC3B
:105FD0002CF0170E0C6E0D6A26EC2AF0040EBEECA7
:105FE00028F0040E056E000EB3EC27F0CE0E0C6EFA
:105FF0007F0E0D6E26EC2AF014C008F0096A170E09
:106000000A6EA3EC2CF0170E0C6E0D6A26EC2AF02B
:10601000060EBEEC28F0060E056E000EB3EC27F05F
:106020001550D8B416EF30F018EF30F020EF30F004
:10603000200E0C6E7F0E0D6E26EC2AF026EF30F04F
:10604000FC0E0C6E7E0E0D6E26EC2AF012000B6E0E
:10605000096A000E086E200E0B18D8A432EF30F03B
:1060600034EF30F039EF30F0096A000E086E91EF2E
:1060700030F02F0E0B643FEF30F041EF30F051EF76
:1060800030F03A0E0B6047EF30F049EF30F051EF4F
:1060900030F0D10E0B24086E096AFF0E092291EF31
:1060A00030F0400E0B6457EF30F059EF30F069EFED
:1060B00030F05B0E0B605FEF30F061EF30F069EFB6
:1060C00030F0CA0E0B24086E096AFF0E092291EF08
:1060D00030F03A0E0B18D8A470EF30F072EF30F0B9
:1060E00077EF30F0096A250E086E91EF30F0250E3B
:1060F0000B18D8A47EEF30F080EF30F085EF30F051
:10610000096A260E086E91EF30F02E0E0B18D8A4F7
:106110008CEF30F08EEF30F091EF30F0096A270EFF
:10612000086EFDEC27F0780E2BEC2BF0400E2BECDC
:106130002BF00A6A050E0802F3CF04F0F4CF05F045
:106140000902F3500526F90E0424066E7C0E052084
:10615000076E0A500626000E072206C0F6FF07C08B
:10616000F7FF0800F5502BEC2BF00A2A040E0A6406
:10617000BCEF30F0BEEF30F09AEF30F0000E2BECB9
:106180002BF0A2EC27F0120075EC29F00009D8A43E
:10619000CCEF30F0CEEF30F0D8EF30F0000E286EBC
:1061A000C00E296E790E2A6EC40E2B6E65EF31F08B
:1061B000CC0EC4EC27F0BE0EC4EC27F02CEC28F07B
:1061C000306E2CEC28F0316E3028D8A4EAEF30F095
:1061D000ECEF30F0FEEF30F03128D8A4F2EF30F0E1
:1061E000F4EF30F0FEEF30F0000E286E800E296ED6
:1061F000790E2A6EC40E2B6E65EF31F03050D8A4A4
:1062000004EF31F006EF31F018EF31F03150D8A43F
:106210000CEF31F00EEF31F018EF31F0000E286E78
:10622000800E296E790E2A6EC40E2B6E65EF31F04A
:10623000500E3018D8A41FEF31F021EF31F034EFB9
:1062400031F0050E3118D8A428EF31F02AEF31F0E3
:1062500034EF31F0000E286E400E296E790E2A6E52
:10626000C40E2B6E65EF31F0305031C02CF02D6A2A
:106270002CC02DF02C6A2C102E6E2D502F6E2EC09F
:1062800001F02FC002F0000E02BEFF0E036E046E7E
:10629000010E12EC32F001C00FF002C010F003C08A
:1062A00011F004C012F0000E136E000E146E800E7A
:1062B000156E410E166EEDEC33F00FC028F010C0D5
:1062C00029F011C02AF012C02BF0120049EC27F07F
:1062D0000009D8A46EEF31F070EF31F073EF31F0B8
:1062E000000E11EF32F0FDEC27F0AE0E2BEC2BF090
:1062F000070E2BEC2BF029EC27F0AF0E2BEC2BF03C
:10630000010E67EC2BF01C6E010E67EC2BF01D6E7E
:10631000010E67EC2BF01E6E010E67EC2BF01F6E6A
:10632000010E67EC2BF0206E000E67EC2BF0216E57
:10633000A2EC27F01DC00BF00C6A0D6A0E6A0DC0AE
:106340000EF00CC00DF00BC00CF00B6A1CC00FF06F
:10635000030E0F160FC010F0116A126A136A11C0F3
:1063600013F010C012F0116A106A0B501010146E66
:106370000C501110156E0D501210166E0E50131099
:10638000176E1E501410186E1550196E16501A6E96
:1063900017501B6E0950D96EDA6A18C0DEFF19C09B
:1063A000DEFF1AC0DEFF1BC0DEFF20C00BF00C6A50
:1063B0000D6A0E6A0DC00EF00CC00DF00BC00CF093
:1063C0000B6A1FC00FF0030E0F160FC010F0116AFA
:1063D000126A136A11C013F010C012F0116A106A29
:1063E0000B501010146E0C501110156E0D50121031
:1063F000166E0E501310176E21501410186E155093
:10640000196E16501A6E17501B6E0A50D96EDA6A42
:1064100018C0DEFF19C0DEFF1AC0DEFF1BC0DEFFA2
:10642000010E1200096E0950D8B419EF32F01BEFBB
:1064300032F03DEF32F004BE22EF32F020EF32F0C6
:106440003DEF32F001C005F002C006F003C007F0D6
:1064500004C008F0051E061E071E081E052A000EB1
:1064600006220722082205C00BF006C00CF007C068
:106470000DF008C00EF045EF32F001C00BF002C085
:106480000CF003C00DF004C00EF001500210031018
:106490000410D8A44EEF32F050EF32F05AEF32F041
:1064A000000E016E000E026E000E036E000E046EF2
:1064B000EBEF32F0960E0A6E64EF32F00A2AD890B3
:1064C0000E320D320C320B32000E0B14056E000E24
:1064D0000C14066E000E0D14076EFE0E0E14086EE0
:1064E0000550061007100810D8A479EF32F07BEFA2
:1064F00032F05EEF32F089EF32F00A2A010E0B26FD
:10650000000E0C220D220E22D8900E320D320C32CB
:106510000B32000E0B14056E000E0C14066E000EEE
:106520000D14076EFF0E0E14086E055006100710AE
:106530000810D8A49EEF32F0A0EF32F07DEF32F0D9
:10654000A8EF32F00A06D8900B360C360D360E3610
:106550000DBEADEF32F0AFEF32F0B7EF32F0020E1A
:106560000A60B5EF32F0B7EF32F0A2EF32F00AB0C6
:10657000BCEF32F0BEEF32F0BFEF32F00D9ED8909C
:106580000A320AC005F0066A076A086A05C008F000
:10659000076A066A056A05500B1206500C1207506E
:1065A0000D1208500E120950D8B4D9EF32F0DBEFBB
:1065B00032F0E3EF32F004BEE2EF32F0E0EF32F01F
:1065C000E3EF32F00E8E0BC001F00CC002F00DC0F4
:1065D00003F00EC004F0120012C001F013C002F06C
:1065E00014C003F015C004F091EC27F00009D8A402
:1065F000FCEF32F0FEEF32F02DEF33F05F6A5E6AAF
:106600000001AA6B000EA96FA86B5D6A000EA06F57
:10661000000EA16F000EA26F000EA36F000EA46FFC
:10662000000EA56F000EA66F000EA76F226A225003
:10663000040DF350600FD96EDA6ADE6ADE6ADE6A34
:10664000DD6A222A0F0E226428EF33F02AEF33F09E
:1066500017EF33F0000EECEF33F05F50040DF35002
:10666000600FD96EDA6A12C0DEFF13C0DEFF14C0FD
:10667000DEFF15C0DEFF5F280F0B5F6E0001A94B28
:10668000AA2BEFEC2AF001C018F002C019F003C0E9
:106690001AF004C01BF018500001A05D1C6E1950C8
:1066A000A1591D6E1A50A2591E6E1B50A3591F6E80
:1066B0001CC0A4F01DC0A5F01EC0A6F01FC0A7F00E
:1066C0001FBE6EEF33F01F501E101D1009E1510E5A
:1066D0001C5CD8A06EEF33F070EF33F0D0EF33F0E6
:1066E000A851D8A476EF33F078EF33F0D0EF33F041
:1066F000010EA86F5D2A010E5D6481EF33F083EF18
:1067000033F0B8EF33F0A951AA11D8B48AEF33F0BF
:106710008CEF33F0B8EF33F0780E016E0F0E026E8F
:10672000000E036E000E046EA9C005F0AAC006F0AC
:10673000076A086AFCEC2BF001C020F002C021F0CF
:10674000215009E1280E205CD8A0A9EF33F0ABEF6F
:1067500033F0B8EF33F0215007E1B50E205CD8B02C
:10676000B4EF33F0B6EF33F0B8EF33F020C05EF0A3
:106770000001AA6B000EA96F090E5D60C2EF33F035
:10678000C4EF33F0C9EF33F05DC016F0176ACCEFF9
:1067900033F0176A010E166E16C05DF0E3EF33F0AA
:1067A0001FAEE0EF33F0D80E1C5CFF0E1D58FF0E3D
:1067B0001E58FF0E1F58D8B0E0EF33F0E2EF33F071
:1067C000E3EF33F0A86B18C0A0F019C0A1F01AC015
:1067D000A2F01BC0A3F05E5012001250800B1F6E7F
:1067E00012501224266E11AEF8EF33F0FAEF33F0A8
:1067F000FBEF33F026802650D8B401EF34F003EFDE
:1068000034F017EF34F02628D8A409EF34F00BEF5A
:1068100034F013EF34F0000E0F6E000E106E000E09
:10682000116E000E126E118E126A1FEF34F0000E00
:106830000F6E000E106E000E116E000E126E1650CE
:10684000800B1F1A16501624276E15AE2AEF34F04F
:106850002CEF34F02DEF34F027802750D8B433EFED
:1068600034F035EF34F049EF34F02728D8A43BEF6B
:1068700034F03DEF34F045EF34F0000E136E000EAF
:10688000146E000E156E000E166E158E166A51EF00
:1068900034F0000E136E000E146E000E156E000E16
:1068A000166E1350141015101610D8A45AEF34F0A9
:1068B0005CEF34F074EF34F0000E0F6E000E106ECB
:1068C000000E116E000E126E800E11127F0E12124B
:1068D0001F5012120FC00FF010C010F011C011F0B5
:1068E00012C012F0B3EF35F02650D8A47AEF34F08E
:1068F0007CEF34F086EF34F0000E0F6E000E106E59
:10690000000E116E000E126EB3EF35F0275026C048
:1069100017F0186A175E000E185A7F0E1724206EA3
:10692000000E1820216E0FC01BF010C01CF011C00B
:106930001DF012C01EF0000E0F6E000E106E000E45
:10694000116E000E126E000E226E000E236E000EEF
:10695000246E000E256E276AE6EF34F02750D8B477
:10696000B4EF34F0B6EF34F0CDEF34F0D8901B36FE
:106970001C361D361E36D8900F361036113612369C
:1069800025AEC5EF34F0C7EF34F0C8EF34F00F8018
:10699000D890223623362436253613501B5C1450EB
:1069A0001C5815501D5816501E58D8A0DAEF34F058
:1069B000DCEF34F0E5EF34F0258C13501B5E1450FF
:1069C0001C5A15501D5A16501E5A272A190E276494
:1069D000ECEF34F0EEEF34F0AEEF34F01B501C105F
:1069E0001D101E10D8B4F7EF34F0F9EF34F011EFAA
:1069F00035F0228011EF35F0D8900F361036113671
:106A0000123625AE06EF35F008EF35F009EF35F018
:106A10000F80D89022362336243625362006D8A07B
:106A2000210611AE16EF35F018EF35F0FCEF34F01B
:106A3000276A25AE1EEF35F020EF35F044EF35F034
:106A4000FF0E2214176EFF0E2314186EFF0E24146F
:106A5000196E7F0E25141A6E1750181019101A107F
:106A6000D8B435EF35F037EF35F03BEF35F0010EA8
:106A7000276E44EF35F00FA040EF35F042EF35F0D0
:106A800044EF35F037EF35F02750D8B44AEF35F002
:106A90004CEF35F070EF35F0010E0F26000E10228E
:106AA0001122122212A057EF35F059EF35F070EF96
:106AB00035F00FC017F010C018F011C019F012C057
:106AC0001AF01A341A3219321832173217C00FF06E
:106AD00018C010F019C011F01AC012F0204A212A73
:106AE00021BE7BEF35F0215008E12028D8A07BEFB4
:106AF00035F07DEF35F088EF35F0000E216E20681F
:106B0000000E0F6E000E106E000E116E000E126E53
:106B100021BE95EF35F0215006E12004D8B093EF67
:106B200035F095EF35F0A1EF35F0216A000E206EBB
:106B3000000E0F6E000E106E000E116E000E126E23
:106B40001F6A20C026F026A0A8EF35F0AAEF35F086
:106B5000ADEF35F0118EAEEF35F0119ED8902630A6
:106B6000126E68EF34F012001C50800B256E1C5022
:106B70001C242B6E1BAEBFEF35F0C1EF35F0C2EF1A
:106B800035F02B802B50D8B4C8EF35F0CAEF35F074
:106B9000DDEF35F02B28D8A4D0EF35F0D2EF35F06B
:106BA000DAEF35F0000E196E000E1A6E000E1B6E35
:106BB000000E1C6E1B8EE5EF35F0000E196E000EF8
:106BC0001A6E000E1B6E000E1C6E2050800B251AD4
:106BD000205020242A6E1FAEF0EF35F0F2EF35F092
:106BE000F3EF35F02A802A50D8B4F9EF35F0FBEFF7
:106BF00035F00EEF36F02A28D8A401EF36F003EF77
:106C000036F00BEF36F0000E1D6E000E1E6E000EFD
:106C10001F6E000E206E1F8E16EF36F0000E1D6EDA
:106C2000000E1E6E000E1F6E000E206E2A50D8B48D
:106C30001CEF36F01EEF36F026EF36F02B50D8A4BE
:106C400024EF36F026EF36F030EF36F0000E196EF6
:106C5000000E1A6E000E1B6E000E1C6EC6EF37F093
:106C60001F501902F3CF30F0F4CF31F03050266EC0
:106C7000276A286A296A31502C6E2D6A2E6A2F6A7B
:106C80001E501A02F3CF30F0F4CF31F030502626E8
:106C9000000E27222822292231502C26000E2D22D8
:106CA0002E222F221D501B02F3CF30F0F4CF31F0F3
:106CB00030502626000E27222822292231502C2649
:106CC000000E2D222E222F2228C029F027C028F0C6
:106CD00026C027F0266A1D501A02F3CF30F0F4CFF9
:106CE00031F03050262631502722000E2822000E87
:106CF00029221E501902F3CF30F0F4CF31F030507A
:106D0000262631502722000E2822000E292228C0D4
:106D100029F027C028F026C027F0266A1D50190246
:106D2000F3CF30F0F4CF31F0305026263150272207
:106D3000000E2822000E29221F501A02F3CF30F035
:106D4000F4CF31F030502C2631502D22000E2E225F
:106D5000000E2F221E501B02F3CF30F0F4CF31F083
:106D600030502C2631502D22000E2E22000E2F22C4
:106D70001F501B02F3CF30F0F4CF31F03050216EB2
:106D80003150226E236A246A23C024F022C023F0EB
:106D900021C022F0216A21502C2622502D2223507E
:106DA0002E2224502F2226C021F027C022F028C0F6
:106DB00023F029C024F0190EE3EF36F0D8902432E6
:106DC000233222322132E82EDEEF36F021502C26FB
:106DD00022502D2223502E2224502F2228C029F069
:106DE00027C028F026C027F0266A2A502BC021F0A1
:106DF000226A2126000E2222820E2124306EFF0EEE
:106E00002220316E19EF37F0D8902C362D362E36E1
:106E10002F3629AE0EEF37F010EF37F011EF37F0C5
:106E20002C80D89026362736283629363006D8A02A
:106E300031062EAE1EEF37F020EF37F004EF37F0BB
:106E40002A6A29AE26EF37F028EF37F04CEF37F0FB
:106E5000FF0E2614216EFF0E2714226EFF0E28143B
:106E6000236E7F0E2914246E21502210231024102B
:106E7000D8B43DEF37F03FEF37F043EF37F0010E76
:106E80002A6E4CEF37F02CA048EF37F04AEF37F07E
:106E90004CEF37F03FEF37F02A50D8B452EF37F0CD
:106EA00054EF37F078EF37F0010E2C26000E2D222C
:106EB0002E222F222FA05FEF37F061EF37F078EF0F
:106EC00037F02CC021F02DC022F02EC023F02FC0AF
:106ED00024F02434243223322232213221C02CF0F7
:106EE00022C02DF023C02EF024C02FF0304A312ACA
:106EF00031BE83EF37F0315008E13028D8A083EF5E
:106F000037F085EF37F08FEF37F0000E2C6E000E64
:106F10002D6E800E2E6E7F0E2F6EBCEF37F031BEC1
:106F20009CEF37F0315006E13004D8B09AEF37F0DB
:106F30009CEF37F0A7EF37F0000E2C6E000E2D6E91
:106F4000000E2E6E000E2F6E256ABCEF37F030C09B
:106F50002BF0FF0E2C16FF0E2D167F0E2E16000E98
:106F60002F162BA0B6EF37F0B8EF37F0B9EF37F0A8
:106F70002E8ED8902B302F6E25502F122CC019F04A
:106F80002DC01AF02EC01BF02FC01CF012000450B0
:106F9000800B0D6E045004240F6E03AED2EF37F059
:106FA000D4EF37F0D5EF37F00F800F50D8B4DBEFC8
:106FB00037F0DDEF37F0F1EF37F00F28D8A4E3EF2B
:106FC00037F0E5EF37F0EDEF37F0000E016E000E11
:106FD000026E000E036E000E046E038E046AF9EF5B
:106FE00037F0000E016E000E026E000E036E000EF2
:106FF000046E0850800B0E6E0D500E18D8B403EFBF
:1070000038F005EF38F006EF38F00D8C0850082402
:107010000E6E07AE0EEF38F010EF38F011EF38F0CB
:107020000E800E50D8B417EF38F019EF38F02DEF6E
:1070300038F00E28D8A41FEF38F021EF38F029EFF0
:1070400038F0000E056E000E066E000E076E000E84
:10705000086E078E086A35EF38F0000E056E000ED8
:10706000066E000E076E000E086E0F500E5CD8B054
:107070003CEF38F03EEF38F065EF38F00DAC43EF01
:1070800038F045EF38F047EF38F0800E0D1A0FC09A
:1070900010F00EC00FF010C00EF001C010F005C0CF
:1070A00001F010C005F002C010F006C002F010C0E0
:1070B00006F003C010F007C003F010C007F004C0D2
:1070C00010F008C004F010C008F0106A0F500EC095
:1070D00009F00A6A095E000E0A5A0ABE79EF38F012
:1070E0000A5009E11A0E095CD8A079EF38F07BEF5D
:1070F00038F0B2EF38F00150021003100410D8A499
:1071000084EF38F087EF38F0010E88EF38F0000E8A
:10711000106E000E016E000E026E000E036E000E69
:10712000046E0EC00FF0BBEF38F010A09AEF38F0ED
:107130009CEF38F0A2EF38F0D89010300109106EB3
:10714000A4EF38F0D890103201A0A9EF38F0ABEFDF
:1071500038F0ACEF38F0108E0434043203320232CF
:1071600001320F2A0E500F5CD8A0B9EF38F0BBEFF8
:1071700038F095EF38F00DBCC0EF38F0C2EF38F0C2
:1071800002EF39F00F50D8A4C8EF38F0CAEF38F04A
:10719000D4EF38F0000E016E000E026E000E036E8A
:1071A000000E046E21EF3AF005500126065002222F
:1071B000075003220850042204A0E1EF38F0E3EF67
:1071C00038F08FEF39F010A0E8EF38F0EAEF38F040
:1071D000F0EF38F0D89010300109106EF2EF38F06F
:1071E000D890103201A0F7EF38F0F9EF38F0FAEF4D
:1071F00038F0108E043404320332023201320F2A86
:107200008FEF39F00550015C0650025807500358C3
:107210000450800A096E0850800A0958D8B013EF4C
:1072200039F015EF39F040EF39F00150055C096E87
:10723000025006580A6E035007580B6E0450085847
:107240000C6EFF0E0924016EFF0E0A20026EFF0E67
:107250000B20036EFF0E0C20046E800E0D1A106CB6
:107260001050D8A436EF39F038EF39F048EF39F044
:10727000010E0126000E02220322042248EF39F0FB
:107280000550015E0650025A0750035A0850045A2E
:107290000150021003100410D8A451EF39F053EF3D
:1072A00039F088EF39F01050D8A459EF39F05BEF7E
:1072B00039F088EF39F0000E016E000E026E000EFC
:1072C000036E000E046E21EF3AF0D89001360236BC
:1072D0000336043610AE6FEF39F071EF39F072EF0C
:1072E00039F0018010A077EF39F079EF39F07DEFB8
:1072F00039F0D88010367FEF39F0D89010360F5023
:10730000D8B485EF39F087EF39F088EF39F00F0600
:1073100003AE8DEF39F08FEF39F065EF39F00E6A7B
:1073200010AE95EF39F097EF39F0AFEF39F010C0AC
:1073300009F07F0E0916D8B4A0EF39F0A2EF39F0AA
:10734000A6EF39F0010E0E6EAFEF39F001A0ABEFF2
:1073500039F0ADEF39F0AFEF39F0A2EF39F00E5060
:10736000D8B4B5EF39F0B7EF39F0E2EF39F0010EEC
:107370000126000E02220322042204A0C2EF39F0EB
:10738000C4EF39F0E2EF39F001C009F002C00AF0B1
:1073900003C00BF004C00CF00C340C320B320A3278
:1073A000093209C001F00AC002F00BC003F00CC0A2
:1073B00004F00F28D8B4DFEF39F0E1EF39F0E2EF55
:1073C00039F00F2A0F28D8B4E8EF39F0EAEF39F096
:1073D000F2EF39F00F50D8A4F0EF39F0F2EF39F0B6
:1073E00003EF3AF0000E016E000E026E000E036E07
:1073F000000E046E0F50D8A400EF3AF002EF3AF0FE
:1074000003EF3AF00D6A0FA008EF3AF00AEF3AF0F6
:107410000DEF3AF0038E0EEF3AF0039ED8900F3046
:10742000046E0DAE16EF3AF018EF3AF019EF3AF09D
:10743000048E01C001F002C002F003C003F004C0DA
:1074400004F01200586A3E6A416A546A426A436A0A
:10745000466A446A456A576A010E3F6E010E4D6ED8
:10746000000E596E000E5A6E000E5B6E000E5C6EC2
:10747000556A4E6A4F6A9DEC28F023EC27F03DECEC
:1074800027F05FEC2DF0DF0E026E7D0E036E46ECF2
:1074900028F0030E4CEC29F055EC2AF0150E3D6E49
:1074A0004B0E3C6EBE0EE82EFED73C2EFCD73D2E7A
:1074B000FAD700D08C8475EC29F00009D8A463EFCA
:1074C0003AF065EF3AF07FEF3AF0820E0E6E7F0EE3
:1074D0000F6E04EC29F0FC0E026E7D0E036E46EC7E
:1074E00028F0150E3D6E4B0E3C6EBE0EE82EFED7FC
:1074F0003C2EFCD73D2EFAD700D091EF3BF0D6ECD6
:1075000027F0FEEC2CF0C4EC30F028C059F029C074
:107510005AF02AC05BF02BC05CF0000E016E000E2A
:10752000026E5C0E036EC20E046E59C005F05AC0A6
:1075300006F05BC007F05CC008F09EEC2EF0D8B0FF
:10754000A4EF3AF0A6EF3AF029EF3BF059C001F072
:107550005AC002F05BC003F05CC004F0000E056E80
:10756000000E066EFA0E076E420E086E9EEC2EF0AE
:10757000D8B0BDEF3AF0BFEF3AF029EF3BF0010E83
:107580004F6E59C032F05AC033F05BC034F05CC06B
:1075900035F020EC2FF03250556E000E1D6E000EAF
:1075A0001E6E200E1F6E410E206E5550016E026A37
:1075B000036A046A000E12EC32F001C015F002C03A
:1075C00016F003C017F004C018F059C011F05AC0EB
:1075D00012F05BC013F05CC014F0E1EC28F011C0B5
:1075E00019F012C01AF013C01BF014C01CF0B4EC58
:1075F00035F019C032F01AC033F01BC034F01CC093
:1076000035F020EC2FF032504E6E59C001F05AC0C8
:1076100002F05BC003F05CC004F0000E056E000ECB
:10762000066EF00E076E410E086E9EEC2EF0D8B07E
:107630001CEF3BF01FEF3BF0010E20EF3BF0000E84
:10764000416E3C0E026E7F0E036E46EC28F08FEF0B
:107650003BF059C001F05AC002F05BC003F05CC0BF
:1076600004F0000E056E400E066E790E076EC40E15
:10767000086E4EEC2CF0D8A040EF3BF042EF3BF010
:1076800050EF3BF0A60E0E6E7F0E0F6E04EC29F04D
:10769000E50E026E7E0E036E46EC28F083EF3BF0A3
:1076A00059C001F05AC002F05BC003F05CC004F0A6
:1076B000000E056E800E066E790E076EC40E086E03
:1076C0004EEC2CF0D8A067EF3BF069EF3BF077EF82
:1076D0003BF0AE0E0E6E7F0E0F6E04EC29F0560ED0
:1076E000026E7F0E036E46EC28F083EF3BF0BE0E79
:1076F0000E6E7F0E0F6E04EC29F0A20E026E7E0E4F
:10770000036E46EC28F0150E3D6E4B0E3C6EBE0E21
:10771000E82EFED73C2EFCD73D2EFAD700D0D6EC73
:1077200027F08C94AFEC2BF00009D8A49AEF3BF033
:107730009CEF3BF0AAEF3BF0B60E0E6E7F0E0F6E85
:1077400004EC29F0C10E026E7D0E036E46EC28F0AB
:10775000A8EF3BF0120E026E7F0E036E46EC28F08F
:107760004F0E026E7E0E036E46EC28F08C80A1EC6C
:1077700029F081B8BEEF3BF0C0EF3BF0F2EF3BF0F9
:107780004E0E3C6EEB0EE82EFED73C2EFCD70000D2
:1077900081B8CDEF3BF0CFEF3BF0F2EF3BF0010EC5
:1077A0004D1A4D50D8B4D7EF3BF0D9EF3BF0DDEF99
:1077B0003BF0F9EC29F0DFEF3BF057EC27F081A824
:1077C000E4EF3BF0E6EF3BF0DFEF3BF0020E3D6E07
:1077D000040E3C6EBA0EE82EFED73C2EFCD73D2E92
:1077E000FAD700D04D50D8A4F8EF3BF0FAEF3BF0B9
:1077F0000DEF3CF08C908C928C948C968A94020EB7
:107800003D6E040E3C6EBA0EE82EFED73C2EFCD721
:107810003D2EFAD700D0B9EF3BF0000E81B6010E35
:107820004B6E3F04D8A417EF3CF019EF3CF05EEF2D
:107830003CF04B50D8A41FEF3CF021EF3CF05EEF42
:107840003CF04E0E3C6EEB0EE82EFED73C2EFCD7E5
:10785000000081B62EEF3CF030EF3CF05EEF3CF0E4
:10786000010E571A5750CDEC29F05750D8A43BEFD2
:107870003CF03DEF3CF045EF3CF0B40E026E7E0E66
:10788000036E46EC28F04BEF3CF0670E026E7E0E66
:10789000036E46EC28F081A650EF3CF052EF3CF02E
:1078A0004BEF3CF0020E3D6E040E3C6EBA0EE82E1D
:1078B000FED73C2EFCD73D2EFAD700D04BC03FF070
:1078C0004C6A130E4C6467EF3CF069EF3CF06BEFD1
:1078D0003CF0A2EF3CF0470E096E500E0A6E66ECCB
:1078E00031F00009D8B477EF3CF079EF3CF097EF36
:1078F0003CF047C00EF048C00FF049C010F04AC03D
:1079000011F050C012F051C013F052C014F053C027
:1079100015F0ECEC32F0586E50C001F051C002F09E
:1079200052C003F053C004F091EC27F03E6E270ED6
:107930003C6EF50EE82EFED73C2EFCD700004C2AFC
:1079400061EF3CF0432A180E4364A9EF3CF0ABEF23
:107950003CF04CEF3DF0436AC4EC30F028C059F0E5
:1079600029C05AF02AC05BF02BC05CF0000E016EFB
:10797000000E026E5C0E036EC20E046E59C005F05E
:107980005AC006F05BC007F05CC008F09EEC2EF019
:10799000D8B0CDEF3CF0CFEF3CF04AEF3DF059C00E
:1079A00001F05AC002F05BC003F05CC004F0000EAE
:1079B000056E000E066EFA0E076E420E086E9EEC05
:1079C0002EF0D8B0E6EF3CF0E8EF3CF04AEF3DF0A7
:1079D000010E4F6E59C032F05AC033F05BC034F024
:1079E0005CC035F020EC2FF03250556E000E1D6E4D
:1079F000000E1E6E200E1F6E410E206E5550016E41
:107A0000026A036A046A000E12EC32F001C015F03B
:107A100002C016F003C017F004C018F059C011F0EE
:107A20005AC012F05BC013F05CC014F0E1EC28F017
:107A300011C019F012C01AF013C01BF014C01CF0D2
:107A4000B4EC35F019C032F01AC033F01BC034F07A
:107A50001CC035F020EC2FF032504E6E59C001F0B2
:107A60005AC002F05BC003F05CC004F0000E056E6B
:107A7000000E066EF00E076E410E086E9EEC2EF0A4
:107A8000D8B045EF3DF048EF3DF0010E49EF3DF035
:107A9000000E416ED6EC27F0010E406E3E50D8A489
:107AA00054EF3DF056EF3DF05FEF3DF04150D8A46C
:107AB0005CEF3DF05EEF3DF05FEF3DF0406A40C0AF
:107AC00056F0546A5650D8B468EF3DF06AEF3DF076
:107AD000EEEF3DF05750D8A470EF3DF072EF3DF05F
:107AE000B1EF3DF05850D8B478EF3DF07AEF3DF06B
:107AF0008CEF3DF0310E586480EF3DF082EF3DF0A9
:107B00008AEF3DF0780E586488EF3DF08AEF3DF043
:107B10008CEF3DF0010E546E4F50D8B492EF3DF013
:107B200094EF3DF0EEEF3DF0000E016E000E026EA0
:107B30001A0E036E420E046E59C005F05AC006F0CC
:107B40005BC007F05CC008F09EEC2EF0D8B0ABEF45
:107B50003DF0ADEF3DF0EEEF3DF0010E546EEEEF77
:107B60003DF05850D8B4B7EF3DF0B9EF3DF0CBEF52
:107B70003DF0270E5864BFEF3DF0C1EF3DF0C9EF77
:107B80003DF0B40E5864C7EF3DF0C9EF3DF0CBEFC8
:107B90003DF0010E546E4F50D8B4D1EF3DF0D3EF0D
:107BA0003DF0EEEF3DF0000E016E000E026E1C0E79
:107BB000036E420E046E59C005F05AC006F05BC059
:107BC00007F05CC008F09EEC2EF0D8B0EAEF3DF074
:107BD000ECEF3DF0EEEF3DF0ADEF3DF08C80565018
:107BE000D8A4F5EF3DF0F9EF3DF03C6A3C2AFAEFFE
:107BF0003DF03C6A3C468C503C18FD0B3C188C6EAA
:107C00008C945650D8B407EF3EF00BEF3EF03C6A30
:107C10003C2A0CEF3EF03C6A3C463C463C468C50CD
:107C20003C18F70B3C188C6E5450D8B41AEF3EF049
:107C30001CEF3EF02FEF3EF0462A060E466423EF7F
:107C40003EF025EF3EF032EF3EF0466A010E451A57
:107C500045B002D08A9401D08A8432EF3EF08A94F3
:107C6000456A466A422A010E426439EF3EF03BEF14
:107C70003EF053EF3EF0426A5650D8A442EF3EF039
:107C800044EF3EF048EF3EF028EC29F053EF3EF091
:107C90004EC013F058C014F054C015F057C016F081
:107CA0005550A3EC2FF0442A0E0E44645AEF3EF0D8
:107CB0005CEF3EF0B9EF3BF0446A5650D8B463EF46
:107CC0003EF065EF3EF072EF3EF04EC014F058C04B
:107CD00015F057C016F054C017F055502DEC2EF08B
:107CE000B9EF3BF07C0E026E7E0E036E46EC28F080
:107CF000B9EF3BF0FEEF3FF00000000000003E5106
:107D000049453E00427F400042615149462141457C
:107D10004B311814127F1027454545393C4A4949D3
:107D20003001710905033649494936064949291E7A
:107D30007E1111117E7F494949363E414141227FE2
:107D40004141221C7F494949417F090909013E41BE
:107D500049497A7F0808087F00417F41002040415F
:107D60003F017F081422417F404040407F020C02C7
:107D70007F7F0408107F3E4141413E7F090909068B
:107D80003E4151215E7F0919294646494949310141
:107D9000017F01013F4040403F1F2040201F3F40E6
:107DA00038403F631408146307087008076151499D
:107DB000454300005F0000000609090600000800B6
:107DC000004552523A204D41583330313032206E06
:107DD0006F20656E636F6E747261646F0D0A003D93
:107DE0003D3D2043415244494F2E5820494E49437E
:107DF00049414E444F203D3D3D0D0A004552523A07
:107E00002044533138423230206E6F20656E636FEC
:107E10006E747261646F0D0A003D3D3D20534953FD
:107E200054454D4120454E43454E4449444F203D25
:107E30003D3D0D0A003D3D3D2053495354454D41C4
:107E4000204150414741444F203D3D3D0D0A003DFA
:107E50003D3D2053495354454D41204C4953544FC7
:107E6000203D3D3D0D0A0050455246494C3A2044C4
:107E700045504F5254495354410D0A004553544103
:107E8000444F3A20454E2050415553410D0A005071
:107E9000455246494C3A204445504F525449535458
:107EA00041004552523A2053494E2053454E534FBC
:107EB000520D0A0050455246494C3A204E4F524D01
:107EC000414C0D0A0050455246494C3A2044455019
:107ED0004F5220200050455246494C3A204E4F52B6
:107EE0004D414C20004552523A20504F52203835D7
:107EF000430D0A0050455246494C3A204E4F524DD0
:107F0000414C005349474E4F5320564954414C452C
:107F100053004D41583330313032204F4B0D0A0061
:107F2000414C41524D412041435449564100425435
:107F30004E3A205245414E55444152004453313847
:107F4000423230204F4B0D0A00494E494349414EC1
:107F5000444F2E2E2E004552523A205241570D0AC0
:107F60000053495354454D41204F4E005049433131
:107F70003846343535300049324320592055415276
:107F80005400445331382045525200434152444931
:107F90004F2E5800454E20504155534100524549FF
:107FA0004E4943494500504F522038354300524115
:107FB0005720455252004D415820455252004E4FD5
:107FC0002053454E530053495354454D41004250B0
:107FD0004D3A20200054454D503A20004552524F12
:107FE000520020414C3A0020423A0020503A0044CE
:0B7FF0004550004E4F5200543A000074
:047FFC0065EF27F016
:020000040030CA
:0800000000081F1EFF8181FFB3
:00000001FF
